{
  "contractName": "TicTacTotalMania",
  "abi": [
    {
      "constant": true,
      "inputs": [
        {
          "name": "",
          "type": "address"
        }
      ],
      "name": "Votes",
      "outputs": [
        {
          "name": "isInSupport",
          "type": "bool"
        },
        {
          "name": "reasonGiven",
          "type": "string"
        }
      ],
      "payable": false,
      "stateMutability": "view",
      "type": "function"
    },
    {
      "constant": true,
      "inputs": [],
      "name": "sizeOfBoard",
      "outputs": [
        {
          "name": "",
          "type": "uint256"
        }
      ],
      "payable": false,
      "stateMutability": "view",
      "type": "function"
    },
    {
      "constant": true,
      "inputs": [],
      "name": "secondPlayer",
      "outputs": [
        {
          "name": "",
          "type": "address"
        }
      ],
      "payable": false,
      "stateMutability": "view",
      "type": "function"
    },
    {
      "constant": true,
      "inputs": [
        {
          "name": "",
          "type": "uint256"
        },
        {
          "name": "",
          "type": "uint256"
        }
      ],
      "name": "gameBoard",
      "outputs": [
        {
          "name": "",
          "type": "address"
        }
      ],
      "payable": false,
      "stateMutability": "view",
      "type": "function"
    },
    {
      "constant": true,
      "inputs": [],
      "name": "stake",
      "outputs": [
        {
          "name": "",
          "type": "uint256"
        }
      ],
      "payable": false,
      "stateMutability": "view",
      "type": "function"
    },
    {
      "constant": true,
      "inputs": [],
      "name": "firstPlayer",
      "outputs": [
        {
          "name": "",
          "type": "address"
        }
      ],
      "payable": false,
      "stateMutability": "view",
      "type": "function"
    },
    {
      "constant": true,
      "inputs": [],
      "name": "stoppedInEmergency",
      "outputs": [
        {
          "name": "",
          "type": "bool"
        }
      ],
      "payable": false,
      "stateMutability": "view",
      "type": "function"
    },
    {
      "constant": true,
      "inputs": [],
      "name": "currActivePlayer",
      "outputs": [
        {
          "name": "",
          "type": "address"
        }
      ],
      "payable": false,
      "stateMutability": "view",
      "type": "function"
    },
    {
      "constant": true,
      "inputs": [
        {
          "name": "",
          "type": "address"
        }
      ],
      "name": "pendingWithdrawals",
      "outputs": [
        {
          "name": "",
          "type": "uint256"
        }
      ],
      "payable": false,
      "stateMutability": "view",
      "type": "function"
    },
    {
      "inputs": [],
      "payable": true,
      "stateMutability": "payable",
      "type": "constructor"
    },
    {
      "anonymous": false,
      "inputs": [
        {
          "indexed": false,
          "name": "player",
          "type": "address"
        }
      ],
      "name": "PlayerHasJoined",
      "type": "event"
    },
    {
      "anonymous": false,
      "inputs": [
        {
          "indexed": false,
          "name": "player",
          "type": "address"
        }
      ],
      "name": "NextPlayersTurn",
      "type": "event"
    },
    {
      "anonymous": false,
      "inputs": [
        {
          "indexed": false,
          "name": "winningPlayer",
          "type": "address"
        }
      ],
      "name": "Win",
      "type": "event"
    },
    {
      "anonymous": false,
      "inputs": [],
      "name": "Draw",
      "type": "event"
    },
    {
      "anonymous": false,
      "inputs": [
        {
          "indexed": false,
          "name": "amountWithdrawn",
          "type": "uint256"
        },
        {
          "indexed": false,
          "name": "playerWithdrawn",
          "type": "address"
        }
      ],
      "name": "Payout",
      "type": "event"
    },
    {
      "constant": false,
      "inputs": [],
      "name": "join",
      "outputs": [],
      "payable": true,
      "stateMutability": "payable",
      "type": "function"
    },
    {
      "constant": true,
      "inputs": [],
      "name": "returnBoard",
      "outputs": [
        {
          "name": "existingGameBoard",
          "type": "address[3][3]"
        }
      ],
      "payable": false,
      "stateMutability": "view",
      "type": "function"
    },
    {
      "constant": false,
      "inputs": [
        {
          "name": "xPos",
          "type": "uint8"
        },
        {
          "name": "yPos",
          "type": "uint8"
        }
      ],
      "name": "placePiece",
      "outputs": [],
      "payable": false,
      "stateMutability": "nonpayable",
      "type": "function"
    },
    {
      "constant": false,
      "inputs": [],
      "name": "withdraw",
      "outputs": [],
      "payable": false,
      "stateMutability": "nonpayable",
      "type": "function"
    },
    {
      "constant": false,
      "inputs": [],
      "name": "unlockFundsAfterTimeout",
      "outputs": [],
      "payable": false,
      "stateMutability": "nonpayable",
      "type": "function"
    },
    {
      "constant": false,
      "inputs": [
        {
          "name": "voteInFavour",
          "type": "bool"
        },
        {
          "name": "reason",
          "type": "string"
        }
      ],
      "name": "voteEmergencyStop",
      "outputs": [],
      "payable": false,
      "stateMutability": "nonpayable",
      "type": "function"
    },
    {
      "constant": false,
      "inputs": [],
      "name": "unlockFundsInEmergency",
      "outputs": [],
      "payable": false,
      "stateMutability": "nonpayable",
      "type": "function"
    }
  ],
  "bytecode": "0x608060405260008060006101000a81548160ff021916908315150217905550662386f26fc10000600255600360045561070860135560025434101515156100d4576040517f08c379a00000000000000000000000000000000000000000000000000000000081526004018080602001828103825260298152602001807f496e697469616c2076616c7565206d757374206265206174206c65617374203081526020017f2e3031204574686572000000000000000000000000000000000000000000000081525060400191505060405180910390fd5b6002543411156100e657346002819055505b33601060006101000a81548173ffffffffffffffffffffffffffffffffffffffff021916908373ffffffffffffffffffffffffffffffffffffffff1602179055506120ec806101366000396000f3006080604052600436106100e6576000357c0100000000000000000000000000000000000000000000000000000000900463ffffffff168063094a6749146100eb5780630f0e1e071461016057806312c37265146102275780631bc1e19a146102525780631be80d55146102a95780633391559f14610320578063351f4573146103375780633a4b66f1146103745780633ccfd60b1461039f57806354712524146103b6578063b688a3631461040d578063c30ed24014610417578063e28d4ade1461048d578063ea8aea9e146104bc578063f3f4370314610513578063fee06d181461056a575b600080fd5b3480156100f757600080fd5b5061015e600480360381019080803515159060200190929190803590602001908201803590602001908080601f0160208091040260200160405190810160405280939291908181526020018383808284378201915050505050509192919290505050610581565b005b34801561016c57600080fd5b506101a1600480360381019080803573ffffffffffffffffffffffffffffffffffffffff1690602001909291905050506108ab565b604051808315151515815260200180602001828103825283818151815260200191508051906020019080838360005b838110156101eb5780820151818401526020810190506101d0565b50505050905090810190601f1680156102185780820380516001836020036101000a031916815260200191505b50935050505060405180910390f35b34801561023357600080fd5b5061023c610974565b6040518082815260200191505060405180910390f35b34801561025e57600080fd5b5061026761097a565b604051808273ffffffffffffffffffffffffffffffffffffffff1673ffffffffffffffffffffffffffffffffffffffff16815260200191505060405180910390f35b3480156102b557600080fd5b506102de60048036038101908080359060200190929190803590602001909291905050506109a0565b604051808273ffffffffffffffffffffffffffffffffffffffff1673ffffffffffffffffffffffffffffffffffffffff16815260200191505060405180910390f35b34801561032c57600080fd5b506103356109e9565b005b34801561034357600080fd5b50610372600480360381019080803560ff169060200190929190803560ff169060200190929190505050610a08565b005b34801561038057600080fd5b50610389610d6d565b6040518082815260200191505060405180910390f35b3480156103ab57600080fd5b506103b4610d73565b005b3480156103c257600080fd5b506103cb610f68565b604051808273ffffffffffffffffffffffffffffffffffffffff1673ffffffffffffffffffffffffffffffffffffffff16815260200191505060405180910390f35b610415610f8e565b005b34801561042357600080fd5b5061042c6111b6565b604051808260036000925b8184101561047d5782846020020151600360200280838360005b8381101561046c578082015181840152602081019050610451565b505050509050019260010192610437565b9250505091505060405180910390f35b34801561049957600080fd5b506104a261126f565b604051808215151515815260200191505060405180910390f35b3480156104c857600080fd5b506104d1611281565b604051808273ffffffffffffffffffffffffffffffffffffffff1673ffffffffffffffffffffffffffffffffffffffff16815260200191505060405180910390f35b34801561051f57600080fd5b50610554600480360381019080803573ffffffffffffffffffffffffffffffffffffffff1690602001909291905050506112a7565b6040518082815260200191505060405180910390f35b34801561057657600080fd5b5061057f6112bf565b005b81600160003373ffffffffffffffffffffffffffffffffffffffff1673ffffffffffffffffffffffffffffffffffffffff16815260200190815260200160002060000160006101000a81548160ff02191690831515021790555080600160003373ffffffffffffffffffffffffffffffffffffffff1673ffffffffffffffffffffffffffffffffffffffff1681526020019081526020016000206001019080519060200190610631929190611fc9565b5060016000601060009054906101000a900473ffffffffffffffffffffffffffffffffffffffff1673ffffffffffffffffffffffffffffffffffffffff1673ffffffffffffffffffffffffffffffffffffffff16815260200190815260200160002060000160009054906101000a900460ff16801561071e575060016000601160009054906101000a900473ffffffffffffffffffffffffffffffffffffffff1673ffffffffffffffffffffffffffffffffffffffff1673ffffffffffffffffffffffffffffffffffffffff16815260200190815260200160002060000160009054906101000a900460ff165b1561073e5760016000806101000a81548160ff0219169083151502179055505b60016000601060009054906101000a900473ffffffffffffffffffffffffffffffffffffffff1673ffffffffffffffffffffffffffffffffffffffff1673ffffffffffffffffffffffffffffffffffffffff16815260200190815260200160002060000160009054906101000a900460ff16801561080a5750600073ffffffffffffffffffffffffffffffffffffffff16601160009054906101000a900473ffffffffffffffffffffffffffffffffffffffff1673ffffffffffffffffffffffffffffffffffffffff16145b156108a75760016000806101000a81548160ff0219169083151502179055503073ffffffffffffffffffffffffffffffffffffffff163160036000601060009054906101000a900473ffffffffffffffffffffffffffffffffffffffff1673ffffffffffffffffffffffffffffffffffffffff1673ffffffffffffffffffffffffffffffffffffffff168152602001908152602001600020819055505b5050565b60016020528060005260406000206000915090508060000160009054906101000a900460ff1690806001018054600181600116156101000203166002900480601f01602080910402602001604051908101604052809291908181526020018280546001816001161561010002031660029004801561096a5780601f1061093f5761010080835404028352916020019161096a565b820191906000526020600020905b81548152906001019060200180831161094d57829003601f168201915b5050505050905082565b60045481565b601160009054906101000a900473ffffffffffffffffffffffffffffffffffffffff1681565b6005826003811015156109af57fe5b60030201816003811015156109c057fe5b016000915091509054906101000a900473ffffffffffffffffffffffffffffffffffffffff1681565b6000809054906101000a900460ff1615610a0657610a05611538565b5b565b6000809054906101000a900460ff161515610d6957600073ffffffffffffffffffffffffffffffffffffffff1660058360ff16600381101515610a4757fe5b600302018260ff16600381101515610a5b57fe5b0160009054906101000a900473ffffffffffffffffffffffffffffffffffffffff1673ffffffffffffffffffffffffffffffffffffffff16141515610b2e576040517f08c379a00000000000000000000000000000000000000000000000000000000081526004018080602001828103825260298152602001807f47616d6520706965636520616c726561647920657869737473206f6e2074686981526020017f732073717561726521000000000000000000000000000000000000000000000081525060400191505060405180910390fd5b601260009054906101000a900473ffffffffffffffffffffffffffffffffffffffff1673ffffffffffffffffffffffffffffffffffffffff163373ffffffffffffffffffffffffffffffffffffffff16141515610c19576040517f08c379a000000000000000000000000000000000000000000000000000000000815260040180806020018281038252602e8152602001807f596f75206d6179206e6f7420706c6163652061207069656365206f757473696481526020017f65206f6620796f7572207475726e00000000000000000000000000000000000081525060400191505060405180910390fd5b42601454111515610c92576040517f08c379a00000000000000000000000000000000000000000000000000000000081526004018080602001828103825260178152602001807f546869732067616d65206861732074696d6564206f757400000000000000000081525060200191505060405180910390fd5b60011515600e60009054906101000a900460ff161515141515610cb157fe5b6004548260ff16101515610cc157fe5b6004548160ff16101515610cd157fe5b3360058360ff16600381101515610ce457fe5b600302018260ff16600381101515610cf857fe5b0160006101000a81548173ffffffffffffffffffffffffffffffffffffffff021916908373ffffffffffffffffffffffffffffffffffffffff160217905550610d4d6001600f5461167590919063ffffffff16565b600f819055506013544201601481905550610d688282611693565b5b5050565b60025481565b600080600360003373ffffffffffffffffffffffffffffffffffffffff1673ffffffffffffffffffffffffffffffffffffffff1681526020019081526020016000205414151515610e2c576040517f08c379a000000000000000000000000000000000000000000000000000000000815260040180806020018281038252601d8152602001807f596f752068617665206e6f20457468657220746f20776974686472617700000081525060200191505060405180910390fd5b600360003373ffffffffffffffffffffffffffffffffffffffff1673ffffffffffffffffffffffffffffffffffffffff1681526020019081526020016000205490506000600360003373ffffffffffffffffffffffffffffffffffffffff1673ffffffffffffffffffffffffffffffffffffffff168152602001908152602001600020819055503373ffffffffffffffffffffffffffffffffffffffff166108fc829081150290604051600060405180830381858888f19350505050158015610ef9573d6000803e3d6000fd5b507f9b5d1a613fa5f0790b36b13103706e31fca06b229d87e9915b29fc20c1d764908133604051808381526020018273ffffffffffffffffffffffffffffffffffffffff1673ffffffffffffffffffffffffffffffffffffffff1681526020019250505060405180910390a150565b601060009054906101000a900473ffffffffffffffffffffffffffffffffffffffff1681565b6000809054906101000a900460ff1615156111b457600073ffffffffffffffffffffffffffffffffffffffff16601160009054906101000a900473ffffffffffffffffffffffffffffffffffffffff1673ffffffffffffffffffffffffffffffffffffffff16141515610ffd57fe5b3373ffffffffffffffffffffffffffffffffffffffff16601060009054906101000a900473ffffffffffffffffffffffffffffffffffffffff1673ffffffffffffffffffffffffffffffffffffffff161415151561105757fe5b6002543414151561106457fe5b33601160006101000a81548173ffffffffffffffffffffffffffffffffffffffff021916908373ffffffffffffffffffffffffffffffffffffffff160217905550601160009054906101000a900473ffffffffffffffffffffffffffffffffffffffff16601260006101000a81548173ffffffffffffffffffffffffffffffffffffffff021916908373ffffffffffffffffffffffffffffffffffffffff1602179055506001600e60006101000a81548160ff02191690831515021790555060135442016014819055507ffb52491a58c57df38a00fb4d49da8ee26d19675f419deb8aca7b657035cf7d11601160009054906101000a900473ffffffffffffffffffffffffffffffffffffffff16604051808273ffffffffffffffffffffffffffffffffffffffff1673ffffffffffffffffffffffffffffffffffffffff16815260200191505060405180910390a15b565b6111be612049565b6005600380602002604051908101604052809291906000905b8282101561126657838260030201600380602002604051908101604052809291908260038015611252576020028201915b8160009054906101000a900473ffffffffffffffffffffffffffffffffffffffff1673ffffffffffffffffffffffffffffffffffffffff1681526020019060010190808311611208575b5050505050815260200190600101906111d7565b50505050905090565b6000809054906101000a900460ff1681565b601260009054906101000a900473ffffffffffffffffffffffffffffffffffffffff1681565b60036020528060005260406000206000915090505481565b42601454101515611338576040517f08c379a000000000000000000000000000000000000000000000000000000000815260040180806020018281038252601a8152602001807f47616d6520686173206e6f74207965742074696d6564206f757400000000000081525060200191505060405180910390fd5b60011515600e60009054906101000a900460ff1615151415156113e9576040517f08c379a00000000000000000000000000000000000000000000000000000000081526004018080602001828103825260288152602001807f47616d652068617320616c7265616479206265656e2072656e6465726564206981526020017f6e6163746976652e00000000000000000000000000000000000000000000000081525060400191505060405180910390fd5b601060009054906101000a900473ffffffffffffffffffffffffffffffffffffffff1673ffffffffffffffffffffffffffffffffffffffff16601260009054906101000a900473ffffffffffffffffffffffffffffffffffffffff1673ffffffffffffffffffffffffffffffffffffffff1614156114915761148c601160009054906101000a900473ffffffffffffffffffffffffffffffffffffffff16611b2f565b611536565b601160009054906101000a900473ffffffffffffffffffffffffffffffffffffffff1673ffffffffffffffffffffffffffffffffffffffff16601260009054906101000a900473ffffffffffffffffffffffffffffffffffffffff1673ffffffffffffffffffffffffffffffffffffffff16141561153557611534601060009054906101000a900473ffffffffffffffffffffffffffffffffffffffff16611b2f565b5b5b565b600080600e60006101000a81548160ff02191690831515021790555060023073ffffffffffffffffffffffffffffffffffffffff163181151561157757fe5b0490508060036000601060009054906101000a900473ffffffffffffffffffffffffffffffffffffffff1673ffffffffffffffffffffffffffffffffffffffff1673ffffffffffffffffffffffffffffffffffffffff168152602001908152602001600020819055508060036000601160009054906101000a900473ffffffffffffffffffffffffffffffffffffffff1673ffffffffffffffffffffffffffffffffffffffff1673ffffffffffffffffffffffffffffffffffffffff168152602001908152602001600020819055507fd4e78272079f47a2dd45d8f7092ff3a44f8abfcaeb43c35f8f96e14d610dc8fc60405160405180910390a150565b600080828401905083811015151561168957fe5b8091505092915050565b60008090505b6004548160ff1610156117a657601260009054906101000a900473ffffffffffffffffffffffffffffffffffffffff1673ffffffffffffffffffffffffffffffffffffffff1660058260ff166003811015156116f157fe5b600302018360ff1660038110151561170557fe5b0160009054906101000a900473ffffffffffffffffffffffffffffffffffffffff1673ffffffffffffffffffffffffffffffffffffffff16141515611749576117a6565b61175f6001600454611c0b90919063ffffffff16565b8160ff16141561179957611794601260009054906101000a900473ffffffffffffffffffffffffffffffffffffffff16611b2f565b611b2a565b8080600101915050611699565b600090505b6004548160ff1610156118b857601260009054906101000a900473ffffffffffffffffffffffffffffffffffffffff1673ffffffffffffffffffffffffffffffffffffffff1660058460ff1660038110151561180357fe5b600302018260ff1660038110151561181757fe5b0160009054906101000a900473ffffffffffffffffffffffffffffffffffffffff1673ffffffffffffffffffffffffffffffffffffffff1614151561185b576118b8565b6118716001600454611c0b90919063ffffffff16565b8160ff1614156118ab576118a6601260009054906101000a900473ffffffffffffffffffffffffffffffffffffffff16611b2f565b611b2a565b80806001019150506117ab565b8160ff168360ff1614156119d957600090505b6004548160ff1610156119d857601260009054906101000a900473ffffffffffffffffffffffffffffffffffffffff1673ffffffffffffffffffffffffffffffffffffffff1660058260ff1660038110151561192357fe5b600302018260ff1660038110151561193757fe5b0160009054906101000a900473ffffffffffffffffffffffffffffffffffffffff1673ffffffffffffffffffffffffffffffffffffffff1614151561197b576119d8565b6119916001600454611c0b90919063ffffffff16565b8160ff1614156119cb576119c6601260009054906101000a900473ffffffffffffffffffffffffffffffffffffffff16611b2f565b611b2a565b80806001019150506118cb565b5b60016004540382840160ff161415611b0557600090505b6004548160ff161015611b0457601260009054906101000a900473ffffffffffffffffffffffffffffffffffffffff1673ffffffffffffffffffffffffffffffffffffffff1660058260ff16600381101515611a4857fe5b600302018260ff1660016004540303600381101515611a6357fe5b0160009054906101000a900473ffffffffffffffffffffffffffffffffffffffff1673ffffffffffffffffffffffffffffffffffffffff16141515611aa757611b04565b611abd6001600454611c0b90919063ffffffff16565b8160ff161415611af757611af2601260009054906101000a900473ffffffffffffffffffffffffffffffffffffffff16611b2f565b611b2a565b80806001019150506119f0565b5b60026004540a600f541415611b2157611b1c611538565b611b2a565b611b29611c24565b5b505050565b6000600e60006101000a81548160ff0219169083151502179055503073ffffffffffffffffffffffffffffffffffffffff1631600360008373ffffffffffffffffffffffffffffffffffffffff1673ffffffffffffffffffffffffffffffffffffffff168152602001908152602001600020819055507fc94e26bc371c19185b9e577ef339d2a5bca910d48092cbb160550b311ddd8d9881604051808273ffffffffffffffffffffffffffffffffffffffff1673ffffffffffffffffffffffffffffffffffffffff16815260200191505060405180910390a150565b6000828211151515611c1957fe5b818303905092915050565b601060009054906101000a900473ffffffffffffffffffffffffffffffffffffffff1673ffffffffffffffffffffffffffffffffffffffff16601260009054906101000a900473ffffffffffffffffffffffffffffffffffffffff1673ffffffffffffffffffffffffffffffffffffffff161480611d115750601160009054906101000a900473ffffffffffffffffffffffffffffffffffffffff1673ffffffffffffffffffffffffffffffffffffffff16601260009054906101000a900473ffffffffffffffffffffffffffffffffffffffff1673ffffffffffffffffffffffffffffffffffffffff16145b1515611d85576040517f08c379a00000000000000000000000000000000000000000000000000000000081526004018080602001828103825260128152602001807f4e6f7420612076616c696420706c61796572000000000000000000000000000081525060200191505060405180910390fd5b601060009054906101000a900473ffffffffffffffffffffffffffffffffffffffff1673ffffffffffffffffffffffffffffffffffffffff16601260009054906101000a900473ffffffffffffffffffffffffffffffffffffffff1673ffffffffffffffffffffffffffffffffffffffff161415611e6557601160009054906101000a900473ffffffffffffffffffffffffffffffffffffffff16601260006101000a81548173ffffffffffffffffffffffffffffffffffffffff021916908373ffffffffffffffffffffffffffffffffffffffff160217905550611f42565b601160009054906101000a900473ffffffffffffffffffffffffffffffffffffffff1673ffffffffffffffffffffffffffffffffffffffff16601260009054906101000a900473ffffffffffffffffffffffffffffffffffffffff1673ffffffffffffffffffffffffffffffffffffffff161415611f4157601060009054906101000a900473ffffffffffffffffffffffffffffffffffffffff16601260006101000a81548173ffffffffffffffffffffffffffffffffffffffff021916908373ffffffffffffffffffffffffffffffffffffffff1602179055505b5b7f710da7834608414f0b5c88be0761eb5b10eb20ea9b4256a46edda1287f1aacb9601260009054906101000a900473ffffffffffffffffffffffffffffffffffffffff16604051808273ffffffffffffffffffffffffffffffffffffffff1673ffffffffffffffffffffffffffffffffffffffff16815260200191505060405180910390a1565b828054600181600116156101000203166002900490600052602060002090601f016020900481019282601f1061200a57805160ff1916838001178555612038565b82800160010185558215612038579182015b8281111561203757825182559160200191906001019061201c565b5b5090506120459190612078565b5090565b610120604051908101604052806003905b61206261209d565b81526020019060019003908161205a5790505090565b61209a91905b8082111561209657600081600090555060010161207e565b5090565b90565b6060604051908101604052806003906020820280388339808201915050905050905600a165627a7a72305820a60aead4a8e11b64cabcfd33dadf5b18128581f7b42c1587d8db43ff9dfa96550029",
  "source": "pragma solidity ^0.4.24;\r\n\r\nimport \"../installed_contracts/zeppelin/contracts/math/SafeMath.sol\";\r\n\r\n/** @title Tic Tac Total Mania */\r\ncontract TicTacTotalMania {\r\n\r\n    using SafeMath for uint;\r\n    bool public stoppedInEmergency = false;\r\n    struct EmergencyVote {\r\n        bool isInSupport;\r\n        string reasonGiven;\r\n    }\r\n    mapping (address => EmergencyVote) public Votes;\r\n\r\n    //Initialise a minimum stake\r\n    uint256 public stake = 0.01 ether;\r\n    mapping (address => uint) public pendingWithdrawals;\r\n\r\n    uint public sizeOfBoard = 3;\r\n    address[3][3] public gameBoard;\r\n    bool isGameActive;\r\n\r\n    uint numOfMoves;\r\n    address public firstPlayer;\r\n    address public secondPlayer;\r\n    address public currActivePlayer;\r\n\r\n    uint256 timeout = 30 minutes;\r\n    uint256 nextTimeoutPhase;\r\n\r\n    event PlayerHasJoined(address player);\r\n    event NextPlayersTurn(address player);\r\n    event Win(address winningPlayer);\r\n    event Draw();\r\n    event Payout(uint256 amountWithdrawn, address playerWithdrawn);\r\n\r\n    modifier allowedUnlessEmergency { \r\n        if (!stoppedInEmergency) {\r\n            _;\r\n        }\r\n    }\r\n    modifier onlyInEmergency { \r\n        if (stoppedInEmergency) {\r\n            _;\r\n        }  \r\n    }\r\n\r\n    \r\n    /** @dev Create an instance of the contract. NOTE: Minimum amount defined in stake var.\r\n      */\r\n    constructor() public payable {\r\n        //Check first player has sent at least an equal amount of Ether to start game.\r\n        require(msg.value >= stake, \"Initial value must be at least 0.01 Ether\");\r\n        \r\n        //If initialised Ether value is HIGHER than minimum cost, the first player is setting a higher stake.\r\n        //It is up to the second player whether they are happy to stake the same amount.\r\n        if (msg.value > stake) {\r\n            stake = msg.value;\r\n        }\r\n\r\n        // playWithMutations = mutatorsOn;\r\n\r\n        firstPlayer = msg.sender;\r\n    }\r\n\r\n    /** @dev Allows a second player to join once contract is instantiated, as long as second player hasn't already joined.\r\n      */\r\n    function join() public payable allowedUnlessEmergency {\r\n        //Check that there isn't already a second player.\r\n        assert(secondPlayer == address(0x0));\r\n        //Check that player one isn't trying to join their own game!\r\n        assert(firstPlayer != msg.sender);\r\n        //Check that the second player has MATCHED the first player's stake. Anything more or less would be unfair.\r\n        assert(msg.value == stake);\r\n\r\n        secondPlayer = msg.sender;\r\n        currActivePlayer = secondPlayer;\r\n        isGameActive = true;\r\n        nextTimeoutPhase = (now + timeout);\r\n        emit PlayerHasJoined(secondPlayer);\r\n    }\r\n    \r\n    /** @dev Returns existing Gameboard instance.\r\n      * @return existingGameBoard The existing gameboard, including already-claimed places by players.\r\n      */\r\n    function returnBoard() public view returns(address[3][3] existingGameBoard) {\r\n        return gameBoard;\r\n    }\r\n\r\n    /** @dev Places a player's piece on the gameboard, as long as place is free.\r\n      * @param xPos Position as per X axis on board\r\n      * @param yPos Position as per y axis on board\r\n      */\r\n    function placePiece(uint8 xPos, uint8 yPos) public allowedUnlessEmergency {\r\n        //Ensure a piece isn't already on position.\r\n        require(gameBoard[xPos][yPos] == address(0x0), \"Game piece already exists on this square!\");\r\n        //Ensure players aren't trying to play outside of their turn!\r\n        require(msg.sender == currActivePlayer, \"You may not place a piece outside of your turn\");\r\n        //Ensure game hasn't timed out\r\n        require(nextTimeoutPhase > now, \"This game has timed out\");\r\n        //Ensure player isn't trying to play a completed game.\r\n        assert(isGameActive == true);\r\n        //Ensure pieces aren't placed out of scope of the board.\r\n        assert(xPos < sizeOfBoard);\r\n        assert(yPos < sizeOfBoard);\r\n\r\n        //Claim position for player\r\n        gameBoard[xPos][yPos] = msg.sender;\r\n        //SafeMath ++\r\n        numOfMoves = numOfMoves.add(1);\r\n        //Reset Timeout\r\n        nextTimeoutPhase = (now + timeout);\r\n\r\n        checkForWinner(xPos, yPos);\r\n    }\r\n\r\n    /** @dev Finds the next player and updates state after a previous player's turn.\r\n      */\r\n    function findNewActivePlayer() internal {\r\n        //Ensure the address is one of our players!\r\n        require((currActivePlayer == firstPlayer) || (currActivePlayer == secondPlayer), \"Not a valid player\");\r\n\r\n        if (currActivePlayer == firstPlayer) {\r\n            currActivePlayer = secondPlayer;\r\n        } else if (currActivePlayer == secondPlayer) {\r\n            currActivePlayer = firstPlayer;\r\n        }\r\n\r\n        emit NextPlayersTurn(currActivePlayer);\r\n    }\r\n\r\n    /** @dev Checks for a winner on the gameboard; diagonally; x-axis; y-axis wins are all valid, as well as a draw.\r\n      * @param xPos Position as per X axis on board\r\n      * @param yPos Position as per y axis on board\r\n      */\r\n    function checkForWinner(uint8 xPos, uint8 yPos) internal {\r\n        //Check for y axis win\r\n        for (uint8 i = 0; i < sizeOfBoard; i++) {\r\n            if (gameBoard[i][yPos] != currActivePlayer) {\r\n                break;\r\n            }\r\n\r\n            if (i == sizeOfBoard.sub(1)) {\r\n                //Player has won\r\n                placeCrown(currActivePlayer);\r\n                return;\r\n            }\r\n        }\r\n\r\n        //Check for x axis win\r\n        for (i = 0; i < sizeOfBoard; i++) {\r\n            if (gameBoard[xPos][i] != currActivePlayer) {\r\n                break;\r\n            }\r\n\r\n            if (i == sizeOfBoard.sub(1)) {\r\n                //Player has won\r\n                placeCrown(currActivePlayer);\r\n                return;\r\n            }\r\n        }\r\n\r\n        //Check for forward diagonal win\r\n        if (xPos == yPos) {\r\n            for (i = 0; i < sizeOfBoard; i++) {\r\n                if (gameBoard[i][i] != currActivePlayer) {\r\n                    break;\r\n                }\r\n\r\n                if (i == sizeOfBoard.sub(1)) {\r\n                    //Player has won\r\n                    placeCrown(currActivePlayer);\r\n                    return;\r\n                }\r\n            }\r\n        }\r\n\r\n        //Check for backward diagonal win\r\n        if ((xPos + yPos) == sizeOfBoard - 1) {\r\n            for (i = 0; i < sizeOfBoard; i++) {\r\n                if (gameBoard[i][(sizeOfBoard-1)-i] != currActivePlayer) {\r\n                    break;\r\n                }\r\n                \r\n\r\n                if (i == sizeOfBoard.sub(1)) {\r\n                    //Player has won\r\n                    placeCrown(currActivePlayer);\r\n                    return;\r\n                }\r\n            }\r\n        }\r\n\r\n        //Check for Draw\r\n        if (numOfMoves == (sizeOfBoard**2)) {\r\n            isDraw();\r\n            return;\r\n        }\r\n        \r\n        //Find new active player IF nobody has won or drawn.\r\n        findNewActivePlayer();\r\n    }\r\n\r\n    /** @dev Crowns a winner, and assigns the contract balance as winnings.\r\n      * @param winner Player winner\r\n      */\r\n    function placeCrown(address winner) private {\r\n        isGameActive = false;\r\n        //Assign winnings to winner\r\n        pendingWithdrawals[winner] = address(this).balance;\r\n        emit Win(winner);\r\n    }\r\n\r\n    /** @dev Assigns game result as a draw, assigns balance as winnings equally between both players.\r\n      */\r\n    function isDraw() private {\r\n        isGameActive = false;\r\n        //Assign winnings divided equally\r\n        uint balanceToShare = (address(this).balance / 2);\r\n        pendingWithdrawals[firstPlayer] = balanceToShare;\r\n        pendingWithdrawals[secondPlayer] = balanceToShare;\r\n        emit Draw();\r\n    }\r\n\r\n    /** @dev Pull payment functionality which transfers pre-approved amounts via placeCrown() or isDraw().\r\n      */\r\n    function withdraw() public {\r\n        require(pendingWithdrawals[msg.sender] != 0, \"You have no Ether to withdraw\");\r\n        uint amountToWithdraw = pendingWithdrawals[msg.sender];\r\n        // Zero the transfer before sending amount to prevent re-entrancy attacks\r\n        pendingWithdrawals[msg.sender] = 0;\r\n        msg.sender.transfer(amountToWithdraw);\r\n        emit Payout(amountToWithdraw, msg.sender);\r\n    }\r\n\r\n    /*\r\n      Consideration and research needs to be undertaken on game theory & economic incentives during a timeout.\r\n      Theoretically the time on the block can be gamed, with the one constraint that miners have being that the timestamp\r\n      cannot be ahead of the current time. In theory the long-term mean of the timestamps should be more accurate, \r\n      but one needs to consider the possibility of a malicious miner 'timing out' the game unfairly when it looks like\r\n      they are losing. A win cannot be cheated but a loss could be avoided.\r\n      \r\n      - This is called manually by one of the players.\r\n    */\r\n    /** @dev Unlocks funds once the contract's timeout period has passed on any one player's turn.\r\n      */\r\n    function unlockFundsAfterTimeout() public {\r\n        //Game must be timed out & still active\r\n        require(nextTimeoutPhase < now, \"Game has not yet timed out\");\r\n        require(isGameActive == true, \"Game has already been rendered inactive.\");\r\n\r\n        if (currActivePlayer == firstPlayer) {\r\n            placeCrown(secondPlayer);\r\n        } else if (currActivePlayer == secondPlayer) {\r\n            placeCrown(firstPlayer);\r\n        }\r\n    }\r\n\r\n    /** @dev DAO-like implementation which allows the first player (in the event of no second player) \r\n    or both players to agree on an emergency stop, allowing withdrawal of funds.\r\n      * @param voteInFavour boolean as to whether the player is in favour of an emergency stop. \r\n      * @param reason Reason given for voting, either in favour or not, of an emergency stop.\r\n      */\r\n    function voteEmergencyStop(bool voteInFavour, string reason) public {\r\n        Votes[msg.sender].isInSupport = voteInFavour;\r\n        Votes[msg.sender].reasonGiven = reason;\r\n\r\n        if (Votes[firstPlayer].isInSupport && Votes[secondPlayer].isInSupport) {\r\n            //Both players have voted to stop the game.\r\n            stoppedInEmergency = true;\r\n        }\r\n        if (Votes[firstPlayer].isInSupport && secondPlayer == address(0x0)) {\r\n            //Only one player has joined so far, thus they hold all voting power.\r\n            stoppedInEmergency = true;\r\n            pendingWithdrawals[firstPlayer] = address(this).balance;\r\n        }\r\n    }\r\n\r\n    /** @dev Unlocks funds and divides equally ONLY once an Emergency Stop vote has passed successfully.\r\n      */\r\n    function unlockFundsInEmergency() public onlyInEmergency {\r\n        isDraw();\r\n    }\r\n\r\n}",
  "sourcePath": "C:\\Users\\Ryan\\Desktop\\Consensys Course\\state_channel_dice_game\\contracts\\TicTacTotalMania.sol",
  "compiler": {
    "name": "solc",
    "version": "0.4.24+commit.e67f0147.Emscripten.clang"
  },
  "schemaVersion": "2.0.1",
  "updatedAt": "2018-08-21T17:52:50.739Z"
}