{
  "contractName": "TicTacTotalMania",
  "abi": [
    {
      "constant": true,
      "inputs": [],
      "name": "sizeOfBoard",
      "outputs": [
        {
          "name": "",
          "type": "uint8"
        }
      ],
      "payable": false,
      "stateMutability": "view",
      "type": "function"
    },
    {
      "constant": true,
      "inputs": [],
      "name": "secondPlayer",
      "outputs": [
        {
          "name": "",
          "type": "address"
        }
      ],
      "payable": false,
      "stateMutability": "view",
      "type": "function"
    },
    {
      "constant": true,
      "inputs": [
        {
          "name": "",
          "type": "uint256"
        },
        {
          "name": "",
          "type": "uint256"
        }
      ],
      "name": "gameBoard",
      "outputs": [
        {
          "name": "",
          "type": "address"
        }
      ],
      "payable": false,
      "stateMutability": "view",
      "type": "function"
    },
    {
      "constant": true,
      "inputs": [],
      "name": "stake",
      "outputs": [
        {
          "name": "",
          "type": "uint256"
        }
      ],
      "payable": false,
      "stateMutability": "view",
      "type": "function"
    },
    {
      "constant": true,
      "inputs": [],
      "name": "firstPlayer",
      "outputs": [
        {
          "name": "",
          "type": "address"
        }
      ],
      "payable": false,
      "stateMutability": "view",
      "type": "function"
    },
    {
      "constant": true,
      "inputs": [],
      "name": "randomNumber",
      "outputs": [
        {
          "name": "",
          "type": "uint256"
        }
      ],
      "payable": false,
      "stateMutability": "view",
      "type": "function"
    },
    {
      "constant": true,
      "inputs": [],
      "name": "currActivePlayer",
      "outputs": [
        {
          "name": "",
          "type": "address"
        }
      ],
      "payable": false,
      "stateMutability": "view",
      "type": "function"
    },
    {
      "constant": true,
      "inputs": [
        {
          "name": "",
          "type": "address"
        }
      ],
      "name": "pendingWithdrawals",
      "outputs": [
        {
          "name": "",
          "type": "uint256"
        }
      ],
      "payable": false,
      "stateMutability": "view",
      "type": "function"
    },
    {
      "inputs": [],
      "payable": true,
      "stateMutability": "payable",
      "type": "constructor"
    },
    {
      "anonymous": false,
      "inputs": [
        {
          "indexed": false,
          "name": "player",
          "type": "address"
        }
      ],
      "name": "PlayerHasJoined",
      "type": "event"
    },
    {
      "anonymous": false,
      "inputs": [
        {
          "indexed": false,
          "name": "player",
          "type": "address"
        }
      ],
      "name": "NextPlayersTurn",
      "type": "event"
    },
    {
      "anonymous": false,
      "inputs": [
        {
          "indexed": false,
          "name": "winningPlayer",
          "type": "address"
        }
      ],
      "name": "Win",
      "type": "event"
    },
    {
      "anonymous": false,
      "inputs": [
        {
          "indexed": false,
          "name": "mutationType",
          "type": "uint256"
        }
      ],
      "name": "Mutation",
      "type": "event"
    },
    {
      "anonymous": false,
      "inputs": [],
      "name": "Draw",
      "type": "event"
    },
    {
      "anonymous": false,
      "inputs": [
        {
          "indexed": false,
          "name": "amountWithdrawn",
          "type": "uint256"
        },
        {
          "indexed": false,
          "name": "playerWithdrawn",
          "type": "address"
        }
      ],
      "name": "Payout",
      "type": "event"
    },
    {
      "constant": false,
      "inputs": [],
      "name": "join",
      "outputs": [],
      "payable": true,
      "stateMutability": "payable",
      "type": "function"
    },
    {
      "constant": true,
      "inputs": [],
      "name": "returnBoard",
      "outputs": [
        {
          "name": "existingGameBoard",
          "type": "address[3][3]"
        }
      ],
      "payable": false,
      "stateMutability": "view",
      "type": "function"
    },
    {
      "constant": false,
      "inputs": [
        {
          "name": "xPos",
          "type": "uint8"
        },
        {
          "name": "yPos",
          "type": "uint8"
        }
      ],
      "name": "placePiece",
      "outputs": [],
      "payable": true,
      "stateMutability": "payable",
      "type": "function"
    },
    {
      "constant": false,
      "inputs": [],
      "name": "withdraw",
      "outputs": [],
      "payable": false,
      "stateMutability": "nonpayable",
      "type": "function"
    },
    {
      "constant": false,
      "inputs": [],
      "name": "unlockFundsAfterTimeout",
      "outputs": [],
      "payable": false,
      "stateMutability": "nonpayable",
      "type": "function"
    }
  ],
  "bytecode": "0x608060405267016345785d8a00006000556003600260006101000a81548160ff021916908360ff16021790555061012c600f556060604051908101604052806040805190810160405280601381526020017f424f4152445f53495a455f494e4352454153450000000000000000000000000081525081526020016040805190810160405280601381526020017f424f4152445f53495a455f44454352454153450000000000000000000000000081525081526020016040805190810160405280601181526020017f47414d455f50494543455f4d5554494e590000000000000000000000000000008152508152506012906003620000ff9291906200016c565b5060005434101515156200011257600080fd5b6000543411156200012557346000819055505b33600c60026101000a81548173ffffffffffffffffffffffffffffffffffffffff021916908373ffffffffffffffffffffffffffffffffffffffff160217905550620002f2565b8260038101928215620001b3579160200282015b82811115620001b2578251829080519060200190620001a1929190620001c6565b509160200191906001019062000180565b5b509050620001c291906200024d565b5090565b828054600181600116156101000203166002900490600052602060002090601f016020900481019282601f106200020957805160ff19168380011785556200023a565b828001600101855582156200023a579182015b82811115620002395782518255916020019190600101906200021c565b5b5090506200024991906200027e565b5090565b6200027b91905b808211156200027757600081816200026d9190620002a6565b5060010162000254565b5090565b90565b620002a391905b808211156200029f57600081600090555060010162000285565b5090565b90565b50805460018160011615610100020316600290046000825580601f10620002ce5750620002ef565b601f016020900490600052602060002090810190620002ee91906200027e565b5b50565b6116d880620003026000396000f3006080604052600436106100c5576000357c0100000000000000000000000000000000000000000000000000000000900463ffffffff16806312c37265146100ca5780631bc1e19a146100fb5780631be80d5514610152578063351f4573146101c95780633a4b66f1146101f95780633ccfd60b14610224578063547125241461023b578063b688a36314610292578063c30ed2401461029c578063ccbac9f514610312578063ea8aea9e1461033d578063f3f4370314610394578063fee06d18146103eb575b600080fd5b3480156100d657600080fd5b506100df610402565b604051808260ff1660ff16815260200191505060405180910390f35b34801561010757600080fd5b50610110610415565b604051808273ffffffffffffffffffffffffffffffffffffffff1673ffffffffffffffffffffffffffffffffffffffff16815260200191505060405180910390f35b34801561015e57600080fd5b50610187600480360381019080803590602001909291908035906020019092919050505061043b565b604051808273ffffffffffffffffffffffffffffffffffffffff1673ffffffffffffffffffffffffffffffffffffffff16815260200191505060405180910390f35b6101f7600480360381019080803560ff169060200190929190803560ff169060200190929190505050610484565b005b34801561020557600080fd5b5061020e610682565b6040518082815260200191505060405180910390f35b34801561023057600080fd5b50610239610688565b005b34801561024757600080fd5b5061025061087d565b604051808273ffffffffffffffffffffffffffffffffffffffff1673ffffffffffffffffffffffffffffffffffffffff16815260200191505060405180910390f35b61029a6108a3565b005b3480156102a857600080fd5b506102b1610ab5565b604051808260036000925b818410156103025782846020020151600360200280838360005b838110156102f15780820151818401526020810190506102d6565b5050505090500192600101926102bc565b9250505091505060405180910390f35b34801561031e57600080fd5b50610327610b6d565b6040518082815260200191505060405180910390f35b34801561034957600080fd5b50610352610b73565b604051808273ffffffffffffffffffffffffffffffffffffffff1673ffffffffffffffffffffffffffffffffffffffff16815260200191505060405180910390f35b3480156103a057600080fd5b506103d5600480360381019080803573ffffffffffffffffffffffffffffffffffffffff169060200190929190505050610b99565b6040518082815260200191505060405180910390f35b3480156103f757600080fd5b50610400610bb1565b005b600260009054906101000a900460ff1681565b600d60009054906101000a900473ffffffffffffffffffffffffffffffffffffffff1681565b60038260038110151561044a57fe5b600302018160038110151561045b57fe5b016000915091509054906101000a900473ffffffffffffffffffffffffffffffffffffffff1681565b600073ffffffffffffffffffffffffffffffffffffffff1660038360ff166003811015156104ae57fe5b600302018260ff166003811015156104c257fe5b0160009054906101000a900473ffffffffffffffffffffffffffffffffffffffff1673ffffffffffffffffffffffffffffffffffffffff1614151561050657600080fd5b600e60009054906101000a900473ffffffffffffffffffffffffffffffffffffffff1673ffffffffffffffffffffffffffffffffffffffff163373ffffffffffffffffffffffffffffffffffffffff1614151561056257600080fd5b4260105411151561057257600080fd5b60011515600c60009054906101000a900460ff16151514151561059157fe5b600260009054906101000a900460ff1660ff168260ff161015156105b157fe5b600260009054906101000a900460ff1660ff168160ff161015156105d157fe5b3360038360ff166003811015156105e457fe5b600302018260ff166003811015156105f857fe5b0160006101000a81548173ffffffffffffffffffffffffffffffffffffffff021916908373ffffffffffffffffffffffffffffffffffffffff160217905550600c600181819054906101000a900460ff168092919060010191906101000a81548160ff021916908360ff16021790555050600f54420160108190555061067e8282610bed565b5050565b60005481565b600080600160003373ffffffffffffffffffffffffffffffffffffffff1673ffffffffffffffffffffffffffffffffffffffff1681526020019081526020016000205414151515610741576040517f08c379a000000000000000000000000000000000000000000000000000000000815260040180806020018281038252601d8152602001807f596f752068617665206e6f20457468657220746f20776974686472617700000081525060200191505060405180910390fd5b600160003373ffffffffffffffffffffffffffffffffffffffff1673ffffffffffffffffffffffffffffffffffffffff1681526020019081526020016000205490506000600160003373ffffffffffffffffffffffffffffffffffffffff1673ffffffffffffffffffffffffffffffffffffffff168152602001908152602001600020819055503373ffffffffffffffffffffffffffffffffffffffff166108fc829081150290604051600060405180830381858888f1935050505015801561080e573d6000803e3d6000fd5b507f9b5d1a613fa5f0790b36b13103706e31fca06b229d87e9915b29fc20c1d764908133604051808381526020018273ffffffffffffffffffffffffffffffffffffffff1673ffffffffffffffffffffffffffffffffffffffff1681526020019250505060405180910390a150565b600c60029054906101000a900473ffffffffffffffffffffffffffffffffffffffff1681565b600073ffffffffffffffffffffffffffffffffffffffff16600d60009054906101000a900473ffffffffffffffffffffffffffffffffffffffff1673ffffffffffffffffffffffffffffffffffffffff161415156108fd57fe5b3373ffffffffffffffffffffffffffffffffffffffff16600c60029054906101000a900473ffffffffffffffffffffffffffffffffffffffff1673ffffffffffffffffffffffffffffffffffffffff161415151561095757fe5b6000543414151561096457fe5b33600d60006101000a81548173ffffffffffffffffffffffffffffffffffffffff021916908373ffffffffffffffffffffffffffffffffffffffff160217905550600d60009054906101000a900473ffffffffffffffffffffffffffffffffffffffff16600e60006101000a81548173ffffffffffffffffffffffffffffffffffffffff021916908373ffffffffffffffffffffffffffffffffffffffff1602179055506001600c60006101000a81548160ff021916908315150217905550600f5442016010819055507ffb52491a58c57df38a00fb4d49da8ee26d19675f419deb8aca7b657035cf7d11600d60009054906101000a900473ffffffffffffffffffffffffffffffffffffffff16604051808273ffffffffffffffffffffffffffffffffffffffff1673ffffffffffffffffffffffffffffffffffffffff16815260200191505060405180910390a1565b610abd61165a565b60038080602002604051908101604052809291906000905b82821015610b6457838260030201600380602002604051908101604052809291908260038015610b50576020028201915b8160009054906101000a900473ffffffffffffffffffffffffffffffffffffffff1673ffffffffffffffffffffffffffffffffffffffff1681526020019060010190808311610b06575b505050505081526020019060010190610ad5565b50505050905090565b60155481565b600e60009054906101000a900473ffffffffffffffffffffffffffffffffffffffff1681565b60016020528060005260406000206000915090505481565b42601054101515610bc157600080fd5b60011515600c60009054906101000a900460ff161515141515610be357600080fd5b610beb611105565b565b60008090505b600260009054906101000a900460ff1660ff168160ff161015610d1057600e60009054906101000a900473ffffffffffffffffffffffffffffffffffffffff1673ffffffffffffffffffffffffffffffffffffffff1660038260ff16600381101515610c5b57fe5b600302018360ff16600381101515610c6f57fe5b0160009054906101000a900473ffffffffffffffffffffffffffffffffffffffff1673ffffffffffffffffffffffffffffffffffffffff16141515610cb357610d10565b6001600260009054906101000a900460ff160360ff168160ff161415610d0357610cfe600e60009054906101000a900473ffffffffffffffffffffffffffffffffffffffff16611242565b611100565b8080600101915050610bf3565b600090505b600260009054906101000a900460ff1660ff168160ff161015610e3257600e60009054906101000a900473ffffffffffffffffffffffffffffffffffffffff1673ffffffffffffffffffffffffffffffffffffffff1660038460ff16600381101515610d7d57fe5b600302018260ff16600381101515610d9157fe5b0160009054906101000a900473ffffffffffffffffffffffffffffffffffffffff1673ffffffffffffffffffffffffffffffffffffffff16141515610dd557610e32565b6001600260009054906101000a900460ff160360ff168160ff161415610e2557610e20600e60009054906101000a900473ffffffffffffffffffffffffffffffffffffffff16611242565b611100565b8080600101915050610d15565b8160ff168360ff161415610f6357600090505b600260009054906101000a900460ff1660ff168160ff161015610f6257600e60009054906101000a900473ffffffffffffffffffffffffffffffffffffffff1673ffffffffffffffffffffffffffffffffffffffff1660038260ff16600381101515610ead57fe5b600302018260ff16600381101515610ec157fe5b0160009054906101000a900473ffffffffffffffffffffffffffffffffffffffff1673ffffffffffffffffffffffffffffffffffffffff16141515610f0557610f62565b6001600260009054906101000a900460ff160360ff168160ff161415610f5557610f50600e60009054906101000a900473ffffffffffffffffffffffffffffffffffffffff16611242565b611100565b8080600101915050610e45565b5b6001600260009054906101000a900460ff160360ff1682840160ff1614156110bc57600090505b600260009054906101000a900460ff1660ff168160ff1610156110bb57600e60009054906101000a900473ffffffffffffffffffffffffffffffffffffffff1673ffffffffffffffffffffffffffffffffffffffff1660038260ff16600381101515610ff257fe5b60030201826001600260009054906101000a900460ff16030360ff1660038110151561101a57fe5b0160009054906101000a900473ffffffffffffffffffffffffffffffffffffffff1673ffffffffffffffffffffffffffffffffffffffff1614151561105e576110bb565b6001600260009054906101000a900460ff160360ff168160ff1614156110ae576110a9600e60009054906101000a900473ffffffffffffffffffffffffffffffffffffffff16611242565b611100565b8080600101915050610f8a565b5b60028060009054906101000a900460ff160a60ff16600c60019054906101000a900460ff1660ff1614156110f7576110f2611105565b611100565b6110ff61131e565b5b505050565b600080600c60006101000a81548160ff02191690831515021790555060023073ffffffffffffffffffffffffffffffffffffffff163181151561114457fe5b0490508060016000600c60029054906101000a900473ffffffffffffffffffffffffffffffffffffffff1673ffffffffffffffffffffffffffffffffffffffff1673ffffffffffffffffffffffffffffffffffffffff168152602001908152602001600020819055508060016000600d60009054906101000a900473ffffffffffffffffffffffffffffffffffffffff1673ffffffffffffffffffffffffffffffffffffffff1673ffffffffffffffffffffffffffffffffffffffff168152602001908152602001600020819055507fd4e78272079f47a2dd45d8f7092ff3a44f8abfcaeb43c35f8f96e14d610dc8fc60405160405180910390a150565b6000600c60006101000a81548160ff0219169083151502179055503073ffffffffffffffffffffffffffffffffffffffff1631600160008373ffffffffffffffffffffffffffffffffffffffff1673ffffffffffffffffffffffffffffffffffffffff168152602001908152602001600020819055507fc94e26bc371c19185b9e577ef339d2a5bca910d48092cbb160550b311ddd8d9881604051808273ffffffffffffffffffffffffffffffffffffffff1673ffffffffffffffffffffffffffffffffffffffff16815260200191505060405180910390a150565b600c60029054906101000a900473ffffffffffffffffffffffffffffffffffffffff1673ffffffffffffffffffffffffffffffffffffffff16600e60009054906101000a900473ffffffffffffffffffffffffffffffffffffffff1673ffffffffffffffffffffffffffffffffffffffff16148061140b5750600d60009054906101000a900473ffffffffffffffffffffffffffffffffffffffff1673ffffffffffffffffffffffffffffffffffffffff16600e60009054906101000a900473ffffffffffffffffffffffffffffffffffffffff1673ffffffffffffffffffffffffffffffffffffffff16145b151561141657600080fd5b600c60029054906101000a900473ffffffffffffffffffffffffffffffffffffffff1673ffffffffffffffffffffffffffffffffffffffff16600e60009054906101000a900473ffffffffffffffffffffffffffffffffffffffff1673ffffffffffffffffffffffffffffffffffffffff1614156114f657600d60009054906101000a900473ffffffffffffffffffffffffffffffffffffffff16600e60006101000a81548173ffffffffffffffffffffffffffffffffffffffff021916908373ffffffffffffffffffffffffffffffffffffffff1602179055506115d3565b600d60009054906101000a900473ffffffffffffffffffffffffffffffffffffffff1673ffffffffffffffffffffffffffffffffffffffff16600e60009054906101000a900473ffffffffffffffffffffffffffffffffffffffff1673ffffffffffffffffffffffffffffffffffffffff1614156115d257600c60029054906101000a900473ffffffffffffffffffffffffffffffffffffffff16600e60006101000a81548173ffffffffffffffffffffffffffffffffffffffff021916908373ffffffffffffffffffffffffffffffffffffffff1602179055505b5b7f710da7834608414f0b5c88be0761eb5b10eb20ea9b4256a46edda1287f1aacb9600e60009054906101000a900473ffffffffffffffffffffffffffffffffffffffff16604051808273ffffffffffffffffffffffffffffffffffffffff1673ffffffffffffffffffffffffffffffffffffffff16815260200191505060405180910390a1565b610120604051908101604052806003905b611673611689565b81526020019060019003908161166b5790505090565b6060604051908101604052806003906020820280388339808201915050905050905600a165627a7a72305820396d10b8afb217ca89875e8214a1e29c6a79bc0c2bf4f9bf81ed979db605714e0029",
  "source": "pragma solidity ^0.4.24;\r\n\r\n// import \"github.com/oraclize/ethereum-api/blob/master/oraclizeAPI_0.5.sol\";\r\n// import \"./oraclizeAPI_0.5.sol\";\r\n\r\n// contract TicTacTotalMania is usingOraclize {\r\ncontract TicTacTotalMania {\r\n\r\n    /**\r\n    * - what happens when Ether is sent to the contract beyond the initial stakes? Is it lost?\r\n      - check withdrawal pattern\r\n    */\r\n\r\n    //Initialise a minimum stake\r\n    uint256 public stake = 0.1 ether;\r\n    mapping (address => uint) public pendingWithdrawals;\r\n\r\n    uint8 public sizeOfBoard = 3;\r\n    address[3][3] public gameBoard;\r\n    bool isGameActive;\r\n\r\n    uint8 numOfMoves;\r\n    address public firstPlayer;\r\n    address public secondPlayer;\r\n    address public currActivePlayer;\r\n\r\n    /** \r\n      Is there a DOS concern here? Could a player just DOS the contract until they are able to timeout/withdraw? \r\n      Is it also possible miners can cheat the timestamp and force a timeout if it looked like they were losing?\r\n    */\r\n    uint256 timeout = 5 minutes;\r\n    uint256 nextTimeoutPhase;\r\n\r\n    bool playWithMutations;\r\n    string[3] MutationType = [\r\n        \"BOARD_SIZE_INCREASE\",\r\n        \"BOARD_SIZE_DECREASE\",\r\n        \"GAME_PIECE_MUTINY\"\r\n    ];\r\n\r\n    uint256 public randomNumber;\r\n\r\n    event PlayerHasJoined(address player);\r\n    event NextPlayersTurn(address player);\r\n    event Win(address winningPlayer);\r\n    event Mutation(uint256 mutationType);\r\n    event Draw();\r\n    event Payout(uint256 amountWithdrawn, address playerWithdrawn);\r\n\r\n    // constructor(bool mutatorsOn) public payable {\r\n    constructor() public payable {\r\n        //Check first player has sent at least an equal amount of Ether to start game.\r\n        require(msg.value >= stake);\r\n        \r\n        //If initialised Ether value is HIGHER than minimum cost, the first player is setting a higher stake.\r\n        //It is up to the second player whether they are happy to stake the same amount.\r\n        if (msg.value > stake) {\r\n            stake = msg.value;\r\n        }\r\n\r\n        // playWithMutations = mutatorsOn;\r\n\r\n        firstPlayer = msg.sender;\r\n    }\r\n\r\n    function join() public payable {\r\n        //Check that there isn't already a second player.\r\n        assert(secondPlayer == address(0x0));\r\n        //Check that player one isn't trying to join their own game!\r\n        assert(firstPlayer != msg.sender);\r\n        //Check that the second player has MATCHED the first player's stake. Anything more or less would be unfair.\r\n        assert(msg.value == stake);\r\n\r\n        secondPlayer = msg.sender;\r\n        currActivePlayer = secondPlayer;\r\n        isGameActive = true;\r\n        nextTimeoutPhase = (now + timeout);\r\n        emit PlayerHasJoined(secondPlayer);\r\n    }\r\n    \r\n    function returnBoard() public view returns(address[3][3] existingGameBoard) {\r\n        return gameBoard;\r\n    }\r\n\r\n    function placePiece(uint8 xPos, uint8 yPos) public payable {\r\n        //Ensure a piece isn't already on position.\r\n        require(gameBoard[xPos][yPos] == address(0x0));\r\n        //Ensure players aren't trying to play outside of their turn!\r\n        require(msg.sender == currActivePlayer);\r\n        //Ensure game hasn't timed out\r\n        require(nextTimeoutPhase > now);\r\n        //Ensure player isn't trying to play a completed game.\r\n        assert(isGameActive == true);\r\n        //Ensure pieces aren't placed out of scope of the board.\r\n        assert(xPos < sizeOfBoard);\r\n        assert(yPos < sizeOfBoard);\r\n\r\n        gameBoard[xPos][yPos] = msg.sender;\r\n        numOfMoves++;\r\n        nextTimeoutPhase = (now + timeout);\r\n\r\n        checkForWinner(xPos, yPos);\r\n\r\n        // if (playWithMutations) {\r\n        //     oraclize_query(\"WolframAlpha\", \"random number between 0 and 100\");\r\n        // }\r\n    }\r\n\r\n    function findNewActivePlayer() internal {\r\n        //Ensure the address is one of our players!\r\n        require((currActivePlayer == firstPlayer) || (currActivePlayer == secondPlayer));\r\n\r\n        if (currActivePlayer == firstPlayer) {\r\n            currActivePlayer = secondPlayer;\r\n        } else if (currActivePlayer == secondPlayer) {\r\n            currActivePlayer = firstPlayer;\r\n        }\r\n\r\n        emit NextPlayersTurn(currActivePlayer);\r\n    }\r\n\r\n    function checkForWinner(uint8 xPos, uint8 yPos) internal {\r\n        //Check for y axis win\r\n        for (uint8 i = 0; i < sizeOfBoard; i++) {\r\n            if (gameBoard[i][yPos] != currActivePlayer) {\r\n                break;\r\n            }\r\n\r\n            if (i == sizeOfBoard - 1) {\r\n                //Player has won\r\n                placeCrown(currActivePlayer);\r\n                return;\r\n            }\r\n        }\r\n\r\n        //Check for x axis win\r\n        for (i = 0; i < sizeOfBoard; i++) {\r\n            if (gameBoard[xPos][i] != currActivePlayer) {\r\n                break;\r\n            }\r\n\r\n            if (i == sizeOfBoard - 1) {\r\n                //Player has won\r\n                placeCrown(currActivePlayer);\r\n                return;\r\n            }\r\n        }\r\n\r\n        //Check for forward diagonal win\r\n        if (xPos == yPos) {\r\n            for (i = 0; i < sizeOfBoard; i++) {\r\n                if (gameBoard[i][i] != currActivePlayer) {\r\n                    break;\r\n                }\r\n\r\n                if (i == sizeOfBoard - 1) {\r\n                    //Player has won\r\n                    placeCrown(currActivePlayer);\r\n                    return;\r\n                }\r\n            }\r\n        }\r\n\r\n        //Check for backward diagonal win\r\n        if ((xPos + yPos) == sizeOfBoard - 1) {\r\n            for (i = 0; i < sizeOfBoard; i++) {\r\n                if (gameBoard[i][(sizeOfBoard-1)-i] != currActivePlayer) {\r\n                    break;\r\n                }\r\n                \r\n\r\n                if (i == sizeOfBoard - 1) {\r\n                    //Player has won\r\n                    placeCrown(currActivePlayer);\r\n                    return;\r\n                }\r\n            }\r\n        }\r\n\r\n        //Check for Draw\r\n        if (numOfMoves == (sizeOfBoard**2)) {\r\n            isDraw();\r\n            return;\r\n        }\r\n        \r\n        //Find new active player IF nobody has won or drawn.\r\n        findNewActivePlayer();\r\n    }\r\n\r\n    function placeCrown(address winner) private {\r\n        isGameActive = false;\r\n        pendingWithdrawals[winner] = address(this).balance;\r\n        emit Win(winner);\r\n    }\r\n\r\n    function isDraw() private {\r\n        isGameActive = false;\r\n        uint balanceToShare = (address(this).balance / 2);\r\n        pendingWithdrawals[firstPlayer] = balanceToShare;\r\n        pendingWithdrawals[secondPlayer] = balanceToShare;\r\n        emit Draw();\r\n    }\r\n\r\n    function withdraw() public {\r\n        require(pendingWithdrawals[msg.sender] != 0, \"You have no Ether to withdraw\");\r\n        uint amountToWithdraw = pendingWithdrawals[msg.sender];\r\n        // require(amountToWithdraw > 0, \"You have no Ether to withdraw\");\r\n        // Zero the transfer before sending amount to prevent re-entrancy attacks\r\n        pendingWithdrawals[msg.sender] = 0;\r\n        msg.sender.transfer(amountToWithdraw);\r\n        emit Payout(amountToWithdraw, msg.sender);\r\n    }\r\n    \r\n    // function __callback(bytes32 myid, uint256 result) public {\r\n    //     require(msg.sender == oraclize_cbAddress());\r\n    //     mutateBoard(result);\r\n    // }\r\n\r\n    /** \r\n      Consideration and research needs to be undertaken on game theory & economic incentives here.\r\n      In theory the time on the block can be gamed, with the one constraint that miners have being that the timestamp\r\n      cannot be ahead of the current time. In theory the long-term mean of the timestamps should be more accurate, \r\n      but one needs to consider the possibility of a malicious miner 'timing out' the game unfairly when it looks like\r\n      they are losing. A win cannot be cheated but a loss could be avoided.\r\n      \r\n      ** This is called manually by one of the players.\r\n    */\r\n    function unlockFundsAfterTimeout() public {\r\n        //Game must be timed out & still active\r\n        require(nextTimeoutPhase < now);\r\n        require(isGameActive == true);\r\n\r\n        isDraw();\r\n    }\r\n\r\n    /** MUTATIONS */\r\n    function mutateBoard(uint256 randomNum) internal {\r\n        //Board must not mutate below 3x3 or game is unwinnable\r\n        //RNG determines type of mutation\r\n\r\n        emit Mutation(randomNum);\r\n\r\n        //Switch statement for type of mutation\r\n    }\r\n    /** MUTATIONS */\r\n\r\n}",
  "sourcePath": "C:\\Users\\Ryan\\Desktop\\Consensys Course\\state_channel_dice_game\\contracts\\TicTacTotalMania.sol",
  "compiler": {
    "name": "solc",
    "version": "0.4.24+commit.e67f0147.Emscripten.clang"
  },
  "schemaVersion": "2.0.0",
  "updatedAt": "2018-08-18T15:12:04.493Z"
}