{
  "contractName": "TicTacTotalMania",
  "abi": [
    {
      "constant": true,
      "inputs": [
        {
          "name": "",
          "type": "address"
        }
      ],
      "name": "Votes",
      "outputs": [
        {
          "name": "isInSupport",
          "type": "bool"
        },
        {
          "name": "reasonGiven",
          "type": "string"
        }
      ],
      "payable": false,
      "stateMutability": "view",
      "type": "function"
    },
    {
      "constant": true,
      "inputs": [],
      "name": "sizeOfBoard",
      "outputs": [
        {
          "name": "",
          "type": "uint8"
        }
      ],
      "payable": false,
      "stateMutability": "view",
      "type": "function"
    },
    {
      "constant": true,
      "inputs": [],
      "name": "secondPlayer",
      "outputs": [
        {
          "name": "",
          "type": "address"
        }
      ],
      "payable": false,
      "stateMutability": "view",
      "type": "function"
    },
    {
      "constant": true,
      "inputs": [
        {
          "name": "",
          "type": "uint256"
        },
        {
          "name": "",
          "type": "uint256"
        }
      ],
      "name": "gameBoard",
      "outputs": [
        {
          "name": "",
          "type": "address"
        }
      ],
      "payable": false,
      "stateMutability": "view",
      "type": "function"
    },
    {
      "constant": true,
      "inputs": [],
      "name": "stake",
      "outputs": [
        {
          "name": "",
          "type": "uint256"
        }
      ],
      "payable": false,
      "stateMutability": "view",
      "type": "function"
    },
    {
      "constant": true,
      "inputs": [],
      "name": "firstPlayer",
      "outputs": [
        {
          "name": "",
          "type": "address"
        }
      ],
      "payable": false,
      "stateMutability": "view",
      "type": "function"
    },
    {
      "constant": true,
      "inputs": [],
      "name": "stoppedInEmergency",
      "outputs": [
        {
          "name": "",
          "type": "bool"
        }
      ],
      "payable": false,
      "stateMutability": "view",
      "type": "function"
    },
    {
      "constant": true,
      "inputs": [],
      "name": "currActivePlayer",
      "outputs": [
        {
          "name": "",
          "type": "address"
        }
      ],
      "payable": false,
      "stateMutability": "view",
      "type": "function"
    },
    {
      "constant": true,
      "inputs": [
        {
          "name": "",
          "type": "address"
        }
      ],
      "name": "pendingWithdrawals",
      "outputs": [
        {
          "name": "",
          "type": "uint256"
        }
      ],
      "payable": false,
      "stateMutability": "view",
      "type": "function"
    },
    {
      "inputs": [],
      "payable": true,
      "stateMutability": "payable",
      "type": "constructor"
    },
    {
      "anonymous": false,
      "inputs": [
        {
          "indexed": false,
          "name": "player",
          "type": "address"
        }
      ],
      "name": "PlayerHasJoined",
      "type": "event"
    },
    {
      "anonymous": false,
      "inputs": [
        {
          "indexed": false,
          "name": "player",
          "type": "address"
        }
      ],
      "name": "NextPlayersTurn",
      "type": "event"
    },
    {
      "anonymous": false,
      "inputs": [
        {
          "indexed": false,
          "name": "winningPlayer",
          "type": "address"
        }
      ],
      "name": "Win",
      "type": "event"
    },
    {
      "anonymous": false,
      "inputs": [],
      "name": "Draw",
      "type": "event"
    },
    {
      "anonymous": false,
      "inputs": [
        {
          "indexed": false,
          "name": "amountWithdrawn",
          "type": "uint256"
        },
        {
          "indexed": false,
          "name": "playerWithdrawn",
          "type": "address"
        }
      ],
      "name": "Payout",
      "type": "event"
    },
    {
      "constant": false,
      "inputs": [],
      "name": "join",
      "outputs": [],
      "payable": true,
      "stateMutability": "payable",
      "type": "function"
    },
    {
      "constant": true,
      "inputs": [],
      "name": "returnBoard",
      "outputs": [
        {
          "name": "existingGameBoard",
          "type": "address[3][3]"
        }
      ],
      "payable": false,
      "stateMutability": "view",
      "type": "function"
    },
    {
      "constant": false,
      "inputs": [
        {
          "name": "xPos",
          "type": "uint8"
        },
        {
          "name": "yPos",
          "type": "uint8"
        }
      ],
      "name": "placePiece",
      "outputs": [],
      "payable": false,
      "stateMutability": "nonpayable",
      "type": "function"
    },
    {
      "constant": false,
      "inputs": [],
      "name": "withdraw",
      "outputs": [],
      "payable": false,
      "stateMutability": "nonpayable",
      "type": "function"
    },
    {
      "constant": false,
      "inputs": [],
      "name": "unlockFundsAfterTimeout",
      "outputs": [],
      "payable": false,
      "stateMutability": "nonpayable",
      "type": "function"
    },
    {
      "constant": false,
      "inputs": [
        {
          "name": "voteInFavour",
          "type": "bool"
        },
        {
          "name": "reason",
          "type": "string"
        }
      ],
      "name": "voteEmergencyStop",
      "outputs": [],
      "payable": false,
      "stateMutability": "nonpayable",
      "type": "function"
    },
    {
      "constant": false,
      "inputs": [],
      "name": "unlockFundsInEmergency",
      "outputs": [],
      "payable": false,
      "stateMutability": "nonpayable",
      "type": "function"
    }
  ],
  "bytecode": "0x608060405260008060006101000a81548160ff021916908315150217905550662386f26fc100006002556003600460006101000a81548160ff021916908360ff160217905550610708601155600254341015151561005c57600080fd5b60025434111561006e57346002819055505b33600e60026101000a81548173ffffffffffffffffffffffffffffffffffffffff021916908373ffffffffffffffffffffffffffffffffffffffff160217905550611e93806100be6000396000f3006080604052600436106100e6576000357c0100000000000000000000000000000000000000000000000000000000900463ffffffff168063094a6749146100eb5780630f0e1e071461016057806312c37265146102275780631bc1e19a146102585780631be80d55146102af5780633391559f14610326578063351f45731461033d5780633a4b66f11461037a5780633ccfd60b146103a557806354712524146103bc578063b688a36314610413578063c30ed2401461041d578063e28d4ade14610493578063ea8aea9e146104c2578063f3f4370314610519578063fee06d1814610570575b600080fd5b3480156100f757600080fd5b5061015e600480360381019080803515159060200190929190803590602001908201803590602001908080601f0160208091040260200160405190810160405280939291908181526020018383808284378201915050505050509192919290505050610587565b005b34801561016c57600080fd5b506101a1600480360381019080803573ffffffffffffffffffffffffffffffffffffffff1690602001909291905050506108b1565b604051808315151515815260200180602001828103825283818151815260200191508051906020019080838360005b838110156101eb5780820151818401526020810190506101d0565b50505050905090810190601f1680156102185780820380516001836020036101000a031916815260200191505b50935050505060405180910390f35b34801561023357600080fd5b5061023c61097a565b604051808260ff1660ff16815260200191505060405180910390f35b34801561026457600080fd5b5061026d61098d565b604051808273ffffffffffffffffffffffffffffffffffffffff1673ffffffffffffffffffffffffffffffffffffffff16815260200191505060405180910390f35b3480156102bb57600080fd5b506102e460048036038101908080359060200190929190803590602001909291905050506109b3565b604051808273ffffffffffffffffffffffffffffffffffffffff1673ffffffffffffffffffffffffffffffffffffffff16815260200191505060405180910390f35b34801561033257600080fd5b5061033b6109fc565b005b34801561034957600080fd5b50610378600480360381019080803560ff169060200190929190803560ff169060200190929190505050610a1b565b005b34801561038657600080fd5b5061038f610c2f565b6040518082815260200191505060405180910390f35b3480156103b157600080fd5b506103ba610c35565b005b3480156103c857600080fd5b506103d1610e2a565b604051808273ffffffffffffffffffffffffffffffffffffffff1673ffffffffffffffffffffffffffffffffffffffff16815260200191505060405180910390f35b61041b610e50565b005b34801561042957600080fd5b50610432611078565b604051808260036000925b818410156104835782846020020151600360200280838360005b83811015610472578082015181840152602081019050610457565b50505050905001926001019261043d565b9250505091505060405180910390f35b34801561049f57600080fd5b506104a8611131565b604051808215151515815260200191505060405180910390f35b3480156104ce57600080fd5b506104d7611143565b604051808273ffffffffffffffffffffffffffffffffffffffff1673ffffffffffffffffffffffffffffffffffffffff16815260200191505060405180910390f35b34801561052557600080fd5b5061055a600480360381019080803573ffffffffffffffffffffffffffffffffffffffff169060200190929190505050611169565b6040518082815260200191505060405180910390f35b34801561057c57600080fd5b50610585611181565b005b81600160003373ffffffffffffffffffffffffffffffffffffffff1673ffffffffffffffffffffffffffffffffffffffff16815260200190815260200160002060000160006101000a81548160ff02191690831515021790555080600160003373ffffffffffffffffffffffffffffffffffffffff1673ffffffffffffffffffffffffffffffffffffffff1681526020019081526020016000206001019080519060200190610637929190611d70565b5060016000600e60029054906101000a900473ffffffffffffffffffffffffffffffffffffffff1673ffffffffffffffffffffffffffffffffffffffff1673ffffffffffffffffffffffffffffffffffffffff16815260200190815260200160002060000160009054906101000a900460ff168015610724575060016000600f60009054906101000a900473ffffffffffffffffffffffffffffffffffffffff1673ffffffffffffffffffffffffffffffffffffffff1673ffffffffffffffffffffffffffffffffffffffff16815260200190815260200160002060000160009054906101000a900460ff165b156107445760016000806101000a81548160ff0219169083151502179055505b60016000600e60029054906101000a900473ffffffffffffffffffffffffffffffffffffffff1673ffffffffffffffffffffffffffffffffffffffff1673ffffffffffffffffffffffffffffffffffffffff16815260200190815260200160002060000160009054906101000a900460ff1680156108105750600073ffffffffffffffffffffffffffffffffffffffff16600f60009054906101000a900473ffffffffffffffffffffffffffffffffffffffff1673ffffffffffffffffffffffffffffffffffffffff16145b156108ad5760016000806101000a81548160ff0219169083151502179055503073ffffffffffffffffffffffffffffffffffffffff163160036000600e60029054906101000a900473ffffffffffffffffffffffffffffffffffffffff1673ffffffffffffffffffffffffffffffffffffffff1673ffffffffffffffffffffffffffffffffffffffff168152602001908152602001600020819055505b5050565b60016020528060005260406000206000915090508060000160009054906101000a900460ff1690806001018054600181600116156101000203166002900480601f0160208091040260200160405190810160405280929190818152602001828054600181600116156101000203166002900480156109705780601f1061094557610100808354040283529160200191610970565b820191906000526020600020905b81548152906001019060200180831161095357829003601f168201915b5050505050905082565b600460009054906101000a900460ff1681565b600f60009054906101000a900473ffffffffffffffffffffffffffffffffffffffff1681565b6005826003811015156109c257fe5b60030201816003811015156109d357fe5b016000915091509054906101000a900473ffffffffffffffffffffffffffffffffffffffff1681565b6000809054906101000a900460ff1615610a1957610a18611302565b5b565b6000809054906101000a900460ff161515610c2b57600073ffffffffffffffffffffffffffffffffffffffff1660058360ff16600381101515610a5a57fe5b600302018260ff16600381101515610a6e57fe5b0160009054906101000a900473ffffffffffffffffffffffffffffffffffffffff1673ffffffffffffffffffffffffffffffffffffffff16141515610ab257600080fd5b601060009054906101000a900473ffffffffffffffffffffffffffffffffffffffff1673ffffffffffffffffffffffffffffffffffffffff163373ffffffffffffffffffffffffffffffffffffffff16141515610b0e57600080fd5b42601254111515610b1e57600080fd5b60011515600e60009054906101000a900460ff161515141515610b3d57fe5b600460009054906101000a900460ff1660ff168260ff16101515610b5d57fe5b600460009054906101000a900460ff1660ff168160ff16101515610b7d57fe5b3360058360ff16600381101515610b9057fe5b600302018260ff16600381101515610ba457fe5b0160006101000a81548173ffffffffffffffffffffffffffffffffffffffff021916908373ffffffffffffffffffffffffffffffffffffffff160217905550600e600181819054906101000a900460ff168092919060010191906101000a81548160ff021916908360ff160217905550506011544201601281905550610c2a828261143f565b5b5050565b60025481565b600080600360003373ffffffffffffffffffffffffffffffffffffffff1673ffffffffffffffffffffffffffffffffffffffff1681526020019081526020016000205414151515610cee576040517f08c379a000000000000000000000000000000000000000000000000000000000815260040180806020018281038252601d8152602001807f596f752068617665206e6f20457468657220746f20776974686472617700000081525060200191505060405180910390fd5b600360003373ffffffffffffffffffffffffffffffffffffffff1673ffffffffffffffffffffffffffffffffffffffff1681526020019081526020016000205490506000600360003373ffffffffffffffffffffffffffffffffffffffff1673ffffffffffffffffffffffffffffffffffffffff168152602001908152602001600020819055503373ffffffffffffffffffffffffffffffffffffffff166108fc829081150290604051600060405180830381858888f19350505050158015610dbb573d6000803e3d6000fd5b507f9b5d1a613fa5f0790b36b13103706e31fca06b229d87e9915b29fc20c1d764908133604051808381526020018273ffffffffffffffffffffffffffffffffffffffff1673ffffffffffffffffffffffffffffffffffffffff1681526020019250505060405180910390a150565b600e60029054906101000a900473ffffffffffffffffffffffffffffffffffffffff1681565b6000809054906101000a900460ff16151561107657600073ffffffffffffffffffffffffffffffffffffffff16600f60009054906101000a900473ffffffffffffffffffffffffffffffffffffffff1673ffffffffffffffffffffffffffffffffffffffff16141515610ebf57fe5b3373ffffffffffffffffffffffffffffffffffffffff16600e60029054906101000a900473ffffffffffffffffffffffffffffffffffffffff1673ffffffffffffffffffffffffffffffffffffffff1614151515610f1957fe5b60025434141515610f2657fe5b33600f60006101000a81548173ffffffffffffffffffffffffffffffffffffffff021916908373ffffffffffffffffffffffffffffffffffffffff160217905550600f60009054906101000a900473ffffffffffffffffffffffffffffffffffffffff16601060006101000a81548173ffffffffffffffffffffffffffffffffffffffff021916908373ffffffffffffffffffffffffffffffffffffffff1602179055506001600e60006101000a81548160ff02191690831515021790555060115442016012819055507ffb52491a58c57df38a00fb4d49da8ee26d19675f419deb8aca7b657035cf7d11600f60009054906101000a900473ffffffffffffffffffffffffffffffffffffffff16604051808273ffffffffffffffffffffffffffffffffffffffff1673ffffffffffffffffffffffffffffffffffffffff16815260200191505060405180910390a15b565b611080611df0565b6005600380602002604051908101604052809291906000905b8282101561112857838260030201600380602002604051908101604052809291908260038015611114576020028201915b8160009054906101000a900473ffffffffffffffffffffffffffffffffffffffff1673ffffffffffffffffffffffffffffffffffffffff16815260200190600101908083116110ca575b505050505081526020019060010190611099565b50505050905090565b6000809054906101000a900460ff1681565b601060009054906101000a900473ffffffffffffffffffffffffffffffffffffffff1681565b60036020528060005260406000206000915090505481565b4260125410151561119157600080fd5b60011515600e60009054906101000a900460ff1615151415156111b357600080fd5b600e60029054906101000a900473ffffffffffffffffffffffffffffffffffffffff1673ffffffffffffffffffffffffffffffffffffffff16601060009054906101000a900473ffffffffffffffffffffffffffffffffffffffff1673ffffffffffffffffffffffffffffffffffffffff16141561125b57611256600f60009054906101000a900473ffffffffffffffffffffffffffffffffffffffff16611958565b611300565b600f60009054906101000a900473ffffffffffffffffffffffffffffffffffffffff1673ffffffffffffffffffffffffffffffffffffffff16601060009054906101000a900473ffffffffffffffffffffffffffffffffffffffff1673ffffffffffffffffffffffffffffffffffffffff1614156112ff576112fe600e60029054906101000a900473ffffffffffffffffffffffffffffffffffffffff16611958565b5b5b565b600080600e60006101000a81548160ff02191690831515021790555060023073ffffffffffffffffffffffffffffffffffffffff163181151561134157fe5b0490508060036000600e60029054906101000a900473ffffffffffffffffffffffffffffffffffffffff1673ffffffffffffffffffffffffffffffffffffffff1673ffffffffffffffffffffffffffffffffffffffff168152602001908152602001600020819055508060036000600f60009054906101000a900473ffffffffffffffffffffffffffffffffffffffff1673ffffffffffffffffffffffffffffffffffffffff1673ffffffffffffffffffffffffffffffffffffffff168152602001908152602001600020819055507fd4e78272079f47a2dd45d8f7092ff3a44f8abfcaeb43c35f8f96e14d610dc8fc60405160405180910390a150565b60008090505b600460009054906101000a900460ff1660ff168160ff16101561156257601060009054906101000a900473ffffffffffffffffffffffffffffffffffffffff1673ffffffffffffffffffffffffffffffffffffffff1660058260ff166003811015156114ad57fe5b600302018360ff166003811015156114c157fe5b0160009054906101000a900473ffffffffffffffffffffffffffffffffffffffff1673ffffffffffffffffffffffffffffffffffffffff1614151561150557611562565b6001600460009054906101000a900460ff160360ff168160ff16141561155557611550601060009054906101000a900473ffffffffffffffffffffffffffffffffffffffff16611958565b611953565b8080600101915050611445565b600090505b600460009054906101000a900460ff1660ff168160ff16101561168457601060009054906101000a900473ffffffffffffffffffffffffffffffffffffffff1673ffffffffffffffffffffffffffffffffffffffff1660058460ff166003811015156115cf57fe5b600302018260ff166003811015156115e357fe5b0160009054906101000a900473ffffffffffffffffffffffffffffffffffffffff1673ffffffffffffffffffffffffffffffffffffffff1614151561162757611684565b6001600460009054906101000a900460ff160360ff168160ff16141561167757611672601060009054906101000a900473ffffffffffffffffffffffffffffffffffffffff16611958565b611953565b8080600101915050611567565b8160ff168360ff1614156117b557600090505b600460009054906101000a900460ff1660ff168160ff1610156117b457601060009054906101000a900473ffffffffffffffffffffffffffffffffffffffff1673ffffffffffffffffffffffffffffffffffffffff1660058260ff166003811015156116ff57fe5b600302018260ff1660038110151561171357fe5b0160009054906101000a900473ffffffffffffffffffffffffffffffffffffffff1673ffffffffffffffffffffffffffffffffffffffff16141515611757576117b4565b6001600460009054906101000a900460ff160360ff168160ff1614156117a7576117a2601060009054906101000a900473ffffffffffffffffffffffffffffffffffffffff16611958565b611953565b8080600101915050611697565b5b6001600460009054906101000a900460ff160360ff1682840160ff16141561190e57600090505b600460009054906101000a900460ff1660ff168160ff16101561190d57601060009054906101000a900473ffffffffffffffffffffffffffffffffffffffff1673ffffffffffffffffffffffffffffffffffffffff1660058260ff1660038110151561184457fe5b60030201826001600460009054906101000a900460ff16030360ff1660038110151561186c57fe5b0160009054906101000a900473ffffffffffffffffffffffffffffffffffffffff1673ffffffffffffffffffffffffffffffffffffffff161415156118b05761190d565b6001600460009054906101000a900460ff160360ff168160ff161415611900576118fb601060009054906101000a900473ffffffffffffffffffffffffffffffffffffffff16611958565b611953565b80806001019150506117dc565b5b6002600460009054906101000a900460ff160a60ff16600e60019054906101000a900460ff1660ff16141561194a57611945611302565b611953565b611952611a34565b5b505050565b6000600e60006101000a81548160ff0219169083151502179055503073ffffffffffffffffffffffffffffffffffffffff1631600360008373ffffffffffffffffffffffffffffffffffffffff1673ffffffffffffffffffffffffffffffffffffffff168152602001908152602001600020819055507fc94e26bc371c19185b9e577ef339d2a5bca910d48092cbb160550b311ddd8d9881604051808273ffffffffffffffffffffffffffffffffffffffff1673ffffffffffffffffffffffffffffffffffffffff16815260200191505060405180910390a150565b600e60029054906101000a900473ffffffffffffffffffffffffffffffffffffffff1673ffffffffffffffffffffffffffffffffffffffff16601060009054906101000a900473ffffffffffffffffffffffffffffffffffffffff1673ffffffffffffffffffffffffffffffffffffffff161480611b215750600f60009054906101000a900473ffffffffffffffffffffffffffffffffffffffff1673ffffffffffffffffffffffffffffffffffffffff16601060009054906101000a900473ffffffffffffffffffffffffffffffffffffffff1673ffffffffffffffffffffffffffffffffffffffff16145b1515611b2c57600080fd5b600e60029054906101000a900473ffffffffffffffffffffffffffffffffffffffff1673ffffffffffffffffffffffffffffffffffffffff16601060009054906101000a900473ffffffffffffffffffffffffffffffffffffffff1673ffffffffffffffffffffffffffffffffffffffff161415611c0c57600f60009054906101000a900473ffffffffffffffffffffffffffffffffffffffff16601060006101000a81548173ffffffffffffffffffffffffffffffffffffffff021916908373ffffffffffffffffffffffffffffffffffffffff160217905550611ce9565b600f60009054906101000a900473ffffffffffffffffffffffffffffffffffffffff1673ffffffffffffffffffffffffffffffffffffffff16601060009054906101000a900473ffffffffffffffffffffffffffffffffffffffff1673ffffffffffffffffffffffffffffffffffffffff161415611ce857600e60029054906101000a900473ffffffffffffffffffffffffffffffffffffffff16601060006101000a81548173ffffffffffffffffffffffffffffffffffffffff021916908373ffffffffffffffffffffffffffffffffffffffff1602179055505b5b7f710da7834608414f0b5c88be0761eb5b10eb20ea9b4256a46edda1287f1aacb9601060009054906101000a900473ffffffffffffffffffffffffffffffffffffffff16604051808273ffffffffffffffffffffffffffffffffffffffff1673ffffffffffffffffffffffffffffffffffffffff16815260200191505060405180910390a1565b828054600181600116156101000203166002900490600052602060002090601f016020900481019282601f10611db157805160ff1916838001178555611ddf565b82800160010185558215611ddf579182015b82811115611dde578251825591602001919060010190611dc3565b5b509050611dec9190611e1f565b5090565b610120604051908101604052806003905b611e09611e44565b815260200190600190039081611e015790505090565b611e4191905b80821115611e3d576000816000905550600101611e25565b5090565b90565b6060604051908101604052806003906020820280388339808201915050905050905600a165627a7a7230582028ee7eb96087375adf5df188e3d9fc241293ed46feaa382746eb5d58b928dbce0029",
  "source": "pragma solidity ^0.4.24;\r\n\r\n// import \"github.com/oraclize/ethereum-api/blob/master/oraclizeAPI_0.5.sol\";\r\n// import \"./oraclizeAPI_0.5.sol\";\r\n\r\n// contract TicTacTotalMania is usingOraclize {\r\ncontract TicTacTotalMania {\r\n\r\n    bool public stoppedInEmergency = false;\r\n    struct EmergencyVote {\r\n        bool isInSupport;\r\n        string reasonGiven;\r\n    }\r\n    mapping (address => EmergencyVote) public Votes;\r\n\r\n    //Initialise a minimum stake\r\n    uint256 public stake = 0.01 ether;\r\n    mapping (address => uint) public pendingWithdrawals;\r\n\r\n    uint8 public sizeOfBoard = 3;\r\n    address[3][3] public gameBoard;\r\n    bool isGameActive;\r\n\r\n    uint8 numOfMoves;\r\n    address public firstPlayer;\r\n    address public secondPlayer;\r\n    address public currActivePlayer;\r\n\r\n    uint256 timeout = 30 minutes;\r\n    uint256 nextTimeoutPhase;\r\n\r\n    event PlayerHasJoined(address player);\r\n    event NextPlayersTurn(address player);\r\n    event Win(address winningPlayer);\r\n    event Draw();\r\n    event Payout(uint256 amountWithdrawn, address playerWithdrawn);\r\n\r\n    modifier allowedUnlessEmergency { \r\n        if (!stoppedInEmergency) {\r\n            _;\r\n        }\r\n    }\r\n    modifier onlyInEmergency { \r\n        if (stoppedInEmergency) {\r\n            _;\r\n        }  \r\n    }\r\n\r\n    // constructor(bool mutatorsOn) public payable {\r\n    constructor() public payable {\r\n        //Check first player has sent at least an equal amount of Ether to start game.\r\n        require(msg.value >= stake);\r\n        \r\n        //If initialised Ether value is HIGHER than minimum cost, the first player is setting a higher stake.\r\n        //It is up to the second player whether they are happy to stake the same amount.\r\n        if (msg.value > stake) {\r\n            stake = msg.value;\r\n        }\r\n\r\n        // playWithMutations = mutatorsOn;\r\n\r\n        firstPlayer = msg.sender;\r\n    }\r\n\r\n    function join() public payable allowedUnlessEmergency {\r\n        //Check that there isn't already a second player.\r\n        assert(secondPlayer == address(0x0));\r\n        //Check that player one isn't trying to join their own game!\r\n        assert(firstPlayer != msg.sender);\r\n        //Check that the second player has MATCHED the first player's stake. Anything more or less would be unfair.\r\n        assert(msg.value == stake);\r\n\r\n        secondPlayer = msg.sender;\r\n        currActivePlayer = secondPlayer;\r\n        isGameActive = true;\r\n        nextTimeoutPhase = (now + timeout);\r\n        emit PlayerHasJoined(secondPlayer);\r\n    }\r\n    \r\n    function returnBoard() public view returns(address[3][3] existingGameBoard) {\r\n        return gameBoard;\r\n    }\r\n\r\n    function placePiece(uint8 xPos, uint8 yPos) public allowedUnlessEmergency {\r\n        //Ensure a piece isn't already on position.\r\n        require(gameBoard[xPos][yPos] == address(0x0));\r\n        //Ensure players aren't trying to play outside of their turn!\r\n        require(msg.sender == currActivePlayer);\r\n        //Ensure game hasn't timed out\r\n        require(nextTimeoutPhase > now);\r\n        //Ensure player isn't trying to play a completed game.\r\n        assert(isGameActive == true);\r\n        //Ensure pieces aren't placed out of scope of the board.\r\n        assert(xPos < sizeOfBoard);\r\n        assert(yPos < sizeOfBoard);\r\n\r\n        gameBoard[xPos][yPos] = msg.sender;\r\n        numOfMoves++;\r\n        nextTimeoutPhase = (now + timeout);\r\n\r\n        checkForWinner(xPos, yPos);\r\n\r\n        // if (playWithMutations) {\r\n        //     oraclize_query(\"WolframAlpha\", \"random number between 0 and 100\");\r\n        // }\r\n    }\r\n\r\n    function findNewActivePlayer() internal {\r\n        //Ensure the address is one of our players!\r\n        require((currActivePlayer == firstPlayer) || (currActivePlayer == secondPlayer));\r\n\r\n        if (currActivePlayer == firstPlayer) {\r\n            currActivePlayer = secondPlayer;\r\n        } else if (currActivePlayer == secondPlayer) {\r\n            currActivePlayer = firstPlayer;\r\n        }\r\n\r\n        emit NextPlayersTurn(currActivePlayer);\r\n    }\r\n\r\n    function checkForWinner(uint8 xPos, uint8 yPos) internal {\r\n        //Check for y axis win\r\n        for (uint8 i = 0; i < sizeOfBoard; i++) {\r\n            if (gameBoard[i][yPos] != currActivePlayer) {\r\n                break;\r\n            }\r\n\r\n            if (i == sizeOfBoard - 1) {\r\n                //Player has won\r\n                placeCrown(currActivePlayer);\r\n                return;\r\n            }\r\n        }\r\n\r\n        //Check for x axis win\r\n        for (i = 0; i < sizeOfBoard; i++) {\r\n            if (gameBoard[xPos][i] != currActivePlayer) {\r\n                break;\r\n            }\r\n\r\n            if (i == sizeOfBoard - 1) {\r\n                //Player has won\r\n                placeCrown(currActivePlayer);\r\n                return;\r\n            }\r\n        }\r\n\r\n        //Check for forward diagonal win\r\n        if (xPos == yPos) {\r\n            for (i = 0; i < sizeOfBoard; i++) {\r\n                if (gameBoard[i][i] != currActivePlayer) {\r\n                    break;\r\n                }\r\n\r\n                if (i == sizeOfBoard - 1) {\r\n                    //Player has won\r\n                    placeCrown(currActivePlayer);\r\n                    return;\r\n                }\r\n            }\r\n        }\r\n\r\n        //Check for backward diagonal win\r\n        if ((xPos + yPos) == sizeOfBoard - 1) {\r\n            for (i = 0; i < sizeOfBoard; i++) {\r\n                if (gameBoard[i][(sizeOfBoard-1)-i] != currActivePlayer) {\r\n                    break;\r\n                }\r\n                \r\n\r\n                if (i == sizeOfBoard - 1) {\r\n                    //Player has won\r\n                    placeCrown(currActivePlayer);\r\n                    return;\r\n                }\r\n            }\r\n        }\r\n\r\n        //Check for Draw\r\n        if (numOfMoves == (sizeOfBoard**2)) {\r\n            isDraw();\r\n            return;\r\n        }\r\n        \r\n        //Find new active player IF nobody has won or drawn.\r\n        findNewActivePlayer();\r\n    }\r\n\r\n    function placeCrown(address winner) private {\r\n        isGameActive = false;\r\n        pendingWithdrawals[winner] = address(this).balance;\r\n        emit Win(winner);\r\n    }\r\n\r\n    function isDraw() private {\r\n        isGameActive = false;\r\n        uint balanceToShare = (address(this).balance / 2);\r\n        pendingWithdrawals[firstPlayer] = balanceToShare;\r\n        pendingWithdrawals[secondPlayer] = balanceToShare;\r\n        emit Draw();\r\n    }\r\n\r\n    function withdraw() public {\r\n        require(pendingWithdrawals[msg.sender] != 0, \"You have no Ether to withdraw\");\r\n        uint amountToWithdraw = pendingWithdrawals[msg.sender];\r\n        // require(amountToWithdraw > 0, \"You have no Ether to withdraw\");\r\n        // Zero the transfer before sending amount to prevent re-entrancy attacks\r\n        pendingWithdrawals[msg.sender] = 0;\r\n        msg.sender.transfer(amountToWithdraw);\r\n        emit Payout(amountToWithdraw, msg.sender);\r\n    }\r\n    \r\n    // function __callback(bytes32 myid, uint256 result) public {\r\n    //     require(msg.sender == oraclize_cbAddress());\r\n    //     mutateBoard(result);\r\n    // }\r\n\r\n    /** \r\n      Consideration and research needs to be undertaken on game theory & economic incentives here.\r\n      In theory the time on the block can be gamed, with the one constraint that miners have being that the timestamp\r\n      cannot be ahead of the current time. In theory the long-term mean of the timestamps should be more accurate, \r\n      but one needs to consider the possibility of a malicious miner 'timing out' the game unfairly when it looks like\r\n      they are losing. A win cannot be cheated but a loss could be avoided.\r\n      \r\n      ** This is called manually by one of the players.\r\n    */\r\n    function unlockFundsAfterTimeout() public {\r\n        //Game must be timed out & still active\r\n        require(nextTimeoutPhase < now);\r\n        require(isGameActive == true);\r\n\r\n        if (currActivePlayer == firstPlayer) {\r\n            placeCrown(secondPlayer);\r\n        } else if (currActivePlayer == secondPlayer) {\r\n            placeCrown(firstPlayer);\r\n        }\r\n    }\r\n\r\n    function voteEmergencyStop(bool voteInFavour, string reason) public {\r\n        Votes[msg.sender].isInSupport = voteInFavour;\r\n        Votes[msg.sender].reasonGiven = reason;\r\n\r\n        if (Votes[firstPlayer].isInSupport && Votes[secondPlayer].isInSupport) {\r\n            //Both players have voted to stop the game.\r\n            stoppedInEmergency = true;\r\n        }\r\n        if (Votes[firstPlayer].isInSupport && secondPlayer == address(0x0)) {\r\n            //Only one player has joined so far, thus they hold all voting power.\r\n            stoppedInEmergency = true;\r\n            pendingWithdrawals[firstPlayer] = address(this).balance;\r\n        }\r\n    }\r\n\r\n    function unlockFundsInEmergency() public onlyInEmergency {\r\n        isDraw();\r\n    }\r\n\r\n}",
  "sourcePath": "C:\\Users\\Ryan\\Desktop\\Consensys Course\\state_channel_dice_game\\contracts\\TicTacTotalMania.sol",
  "compiler": {
    "name": "solc",
    "version": "0.4.24+commit.e67f0147.Emscripten.clang"
  },
  "schemaVersion": "2.0.0",
  "updatedAt": "2018-08-21T15:17:21.931Z"
}